S015000050574D5F47656E657261746F722E7372656315
S11300000C942A000C94D8000C9401010C942A013D
S11300100C9447000C9447000C9447000C94470040
S11300200C9447000C9447000C9447000C94470030
S11300300C9447000C9447000C9447000C94470020
S11300400C9447000C9447000C9447000C94470010
S11300500C94470011241FBECFE5D8E0DEBFCDBF0E
S113006010E0A0E6B0E0E2E5F4E002C005900D92F5
S1130070AE36B107D9F720E0AEE6B0E001C01D927C
S1130080A437B207E1F70E9449000C9427020C94AC
S1130090000041E063E081E00E945E0080E690E0C1
S11300A00E94530160E670E087E10E947A0160E6F5
S11300B070E088ED96ED0E949201FFCF843008F045
S11300C06FC0683008F06EC0423008F06DC08130F7
S11300D0F9F030F08230A1F1833009F449C066C0F0
S11300E02AB381E090E0062E02C0880F991F0A947B
S11300F0E2F7809582238ABB2AB3842F90E002C062
S1130100880F991F6A95E2F7822B8ABB81E00895D4
S113011087B321E030E0062E02C0220F331F0A9479
S1130120E2F72095282327BB27B3842F90E002C051
S1130130880F991F6A95E2F7822B87BB81E00895A7
S113014084B321E030E0062E02C0220F331F0A944C
S1130150E2F72095282324BB24B3842F90E002C027
S1130160880F991F6A95E2F7822B84BB81E008957A
S113017081B321E030E0062E02C0220F331F0A941F
S1130180E2F72095282321BB21B3842F90E002C0FD
S1130190880F991F6A95E2F7822B81BB81E008954D
S11301A083E0089583E0089583E0089581E008954D
S11301B01F920F920FB60F9211242F933F934F93D8
S11301C05F936F937F938F939F93AF93BF93EF93BB
S11301D0FF93E0916E00F0916F00309709F009955C
S11301E0FF91EF91BF91AF919F918F917F916F910B
S11301F05F914F913F912F910F900FBE0F901F90E1
S113020018951F920F920FB60F9211242F933F93BC
S11302104F935F936F937F938F939F93AF93BF930A
S1130220EF93FF93E0917000F0917100309709F023
S11302300995FF91EF91BF91AF919F918F917F911C
S11302406F915F914F913F912F910F900FBE0F903F
S11302501F9018951F920F920FB60F9211242F938F
S11302603F934F935F936F937F938F939F93AF933A
S1130270BF93EF93FF93E0917200F0917300309776
S113028009F00995FF91EF91BF91AF919F918F91E3
S11302907F916F915F914F913F912F910F900FBE7E
S11302A00F901F901895FC019181993051F482812F
S11302B08F3021F08031E1F488E783BF88E683BF83
S11302C017C09A3051F482818F3021F0803181F44B
S11302D080E783BF80E683BF0BC0983049F48281F6
S11302E08F3021F0803121F480E383BF80E283BF2B
S11302F081E00895FB0192819F3041F4982F80E0C2
S113030064E670E00E9413026CBF0AC064E670E009
S11303109B01281B3109922F80E00E9413026CBFBD
S113032081E00895CF93DF93CDB7DEB72A970FB658
S1130330F894DEBF0FBECDBF9C018AE0E3E6F0E097
S1130340DE01119601900D928A95E1F7FB018081FF
S113035081114BC08181893009F047C01AC0E92F4F
S1130360F0E0EE0FFF1F41E050E04C0F5D1FE40F83
S1130370F51F408151814217530749F483B7887FA1
S113038083BF83B79F5F982B93BF91E006C09F5FA5
S113039001C090E0953018F390E09923D9F025C07E
S11303A0E82FF0E0EE0FFF1F41E050E04C0F5D1F1F
S11303B0E40FF51F408151814217530748F493B766
S11303C0987F93BF93B78F5F892B83BF91E005C05C
S11303D08F5F01C080E0853018F3911106C083B7A8
S11303E0887F83BF83B7856083BF80E02A960FB67A
S11303F0F894DEBF0FBECDBFDF91CF910895AA1B45
S1130400BB1B51E107C0AA1FBB1FA617B70710F0FB
S1130410A61BB70B881F991F5A95A9F7809590952D
S1130420BC01CD01089597FB072E16F4009407D064
S113043077FD09D00E94FF0107FC05D03EF490959A
S113044081959F4F0895709561957F4F0895F89415
S1050450FFCFD8
S111045200090FC0F3841ED003F5003D000026
S9030000FC
