S021000050574D5F4452415745525F594F555345465F454C53415945442E737265634B
S11300000C942A000C943A010C9463010C948C0116
S11300100C9447000C9447000C9447000C94470040
S11300200C9447000C9447000C9447000C94470030
S11300300C9447000C9447000C9447000C94470020
S11300400C9447000C9447000C9447000C94470010
S11300500C94470011241FBECFE5D8E0DEBFCDBF0E
S113006010E0A0E6B0E0E0E2F8E002C005900D92F6
S1130070AA37B107D9F720E0AAE7B0E001C01D9282
S1130080A038B207E1F70E94A7000C940E040C9468
S1130090000088BB85B38C7F85BB85B3846085BB3A
S11300A085E08A95F1F7000085B38B7F85BB8FEDE2
S11300B09EE20197F1F700C00000089588BB85B364
S11300C08D7F85BB85B3856085BB85E08A95F1F717
S11300D0000085B38B7F85BB8FE99FE00197F1F723
S11300E000C00000089584B3876084BB8FEF87BB92
S11300F02FEF89EF90E0215080409040E1F700C05D
S1130100000088E30E9449008CE00E94490086E0D8
S11301100E94490081E00E94490080E80E94490051
S113012008950F931F93CF93DF938C01C0E0D0E029
S113013003C00E945E002196F801EC0FFD1F808130
S11301408111F7CFDF91CF911F910F910895CF9334
S1130150DF93CDB7DEB765970FB6F894DEBF0FBE59
S1130160CDBF0E9473008FEF82BB1FBC1DBC1CBCA3
S113017080E288BF81E08EBD8EB580648EBD08B6F6
S113018005FEFDCF26B537B580E288BF8EB58F7BDF
S11301908EBD08B605FEFDCF66B577B580E288BF93
S11301A08EB580648EBD08B605FEFDCFC6B4D7B447
S11301B080E288BF1EBC8B01021B130BC21AD30A38
S11301C0E12CF12C60E074E284EF90E0A701960149
S11301D00E94730349015A01B80180E090E00E9433
S11301E056022B013C01C701B6010E9456029B0135
S11301F0AC01C301B2010E94B50120E030E048EC3B
S113020052E40E94E4026B017C012AE030E0AE017A
S11302104F5F5F4FC501B4010E94A803C701B60137
S11302200E942702862F4AE050E0BE01615F7F4FA3
S113023090E00E94920380E80E94490080E690E0EA
S11302400E949100CE0101960E94910087E690E001
S11302500E94910080EC0E9449008DE690E00E948B
S11302609100CE010F960E94910084E790E00E94D5
S113027091007BCF1F920F920FB60F9211242F93F0
S11302803F934F935F936F937F938F939F93AF931A
S1130290BF93EF93FF93E0917A00F0917B00309746
S11302A009F00995FF91EF91BF91AF919F918F91C3
S11302B07F916F915F914F913F912F910F900FBE5E
S11302C00F901F9018951F920F920FB60F92112442
S11302D02F933F934F935F936F937F938F939F934A
S11302E0AF93BF93EF93FF93E0917C00F0917D0077
S11302F0309709F00995FF91EF91BF91AF919F91CC
S11303008F917F916F915F914F913F912F910F90BA
S11303100FBE0F901F9018951F920F920FB60F9259
S113032011242F933F934F935F936F937F938F93F6
S11303309F93AF93BF93EF93FF93E0917E00F0916F
S11303407F00309709F00995FF91EF91BF91AF912C
S11303509F918F917F916F915F914F913F912F91D9
S11303600F900FBE0F901F9018950E94C9010C9416
S1130370AA020E94A30258F00E949C0240F029F4B1
S11303805F3F29F00C94930251110C94DE020C94FB
S113039099020E94BB0268F39923B1F3552391F3A8
S11303A0951B550BBB27AA2762177307840738F0E0
S11303B09F5F5F4F220F331F441FAA1FA9F335D03D
S11303C00E2E3AF0E0E832D091505040E695001CF1
S11303D0CAF72BD0FE2F29D0660F771F881FBB1FAB
S11303E0261737074807AB07B0E809F0BB0B802D89
S11303F0BF01FF2793585F4F3AF09E3F510578F0B5
S11304000C9493020C94DE025F3FE4F3983ED4F321
S1130410869577956795B795F7959F5FC9F7880F88
S1130420911D9695879597F90895E1E0660F771FDA
S1130430881FBB1F621773078407BA0720F0621B6B
S1130440730B840BBA0BEE1F88F7E09508950E9496
S1130450C30288F09F5798F0B92F9927B751B0F08D
S1130460E1F0660F771F881F991F1AF0BA95C9F734
S113047014C0B13091F00E94DD02B1E008950C94F3
S1130480DD02672F782F8827B85F39F0B93FCCF3A6
S1130490869577956795B395D9F73EF490958095B1
S11304A0709561957F4F8F4F9F4F0895E89409C0D1
S11304B097FB3EF490958095709561957F4F8F4F93
S11304C09F4F9923A9F0F92F96E9BB279395F695A9
S11304D0879577956795B795F111F8CFFAF4BB0F27
S11304E011F460FF1BC06F5F7F4F8F4F9F4F16C08B
S11304F0882311F096E911C0772321F09EE8872F15
S1130500762F05C0662371F096E8862F70E060E0D0
S11305102AF09A95660F771F881FDAF7880F969549
S1130520879597F9089597F99F6780E870E060E0F0
S113053008959FEF80EC089500240A941616170678
S113054018060906089500240A94121613061406C0
S113055005060895092E0394000C11F4882352F023
S1130560BB0F40F4BF2B11F460FF04C06F5F7F4FDB
S11305708F4F9F4F089557FD9058440F551F59F0C2
S11305805F3F71F04795880F97FB991F61F09F3F7C
S113059079F087950895121613061406551FF2CFA5
S11305A04695F1DF08C0161617061806991FF1CFF5
S11305B086957105610508940895E894BB2766271C
S11305C07727CB0197F908950E94F7020C94AA02A9
S11305D00E949C0238F00E94A30220F0952311F09F
S11305E00C9493020C94990211240C94DE020E9440
S11305F0BB0270F3959FC1F3950F50E0551F629FA6
S1130600F001729FBB27F00DB11D639FAA27F00D67
S1130610B11DAA1F649F6627B00DA11D661F829F8E
S11306202227B00DA11D621F739FB00DA11D621F73
S1130630839FA00D611D221F749F3327A00D611D90
S1130640231F849F600D211D822F762F6A2F112472
S11306509F5750409AF0F1F088234AF0EE0FFF1FA5
S1130660BB1F661F771F881F91505040A9F79E3FFC
S1130670510580F00C9493020C94DE025F3FE4F386
S1130680983ED4F3869577956795B795F795E79552
S11306909F5FC1F7FE2B880F911D9695879597F95B
S11306A00895A1E21A2EAA1BBB1BFD010DC0AA1FAF
S11306B0BB1FEE1FFF1FA217B307E407F50720F0C7
S11306C0A21BB30BE40BF50B661F771F881F991F42
S11306D01A9469F760957095809590959B01AC018B
S11306E0BD01CF010895052E97FB1EF400940E94CE
S11306F08A0357FD07D00E94510307FC03D04EF430
S11307000C948A0350954095309521953F4F4F4F57
S11307105F4F089590958095709561957F4F8F4FA9
S11307209F4F08954532510520F4423010F00C9447
S11307309D03FB011082CB010895BB274A3031F49D
S1130740992322F4BDE2909581959F4F0C94E50383
S11307502532310520F4223010F00C94B303FA0151
S11307601082CA010895BB272A3051F4992342F418
S1130770BDE290958095709561957F4F8F4F9F4F07
S11307800C94C303BB27FA01A62F621771058105D8
S11307909105330B30FB66F0AA27660F771F881F7D
S11307A0991FAA1FA21710F0A21B63953850A9F72E
S11307B0A05DAA3308F0A95DA19336F7B111B193F6
S11307C01082CA010C94FE03BB27FB015527AA27FC
S11307D0880F991FAA1FA41710F0A41B83955051CA
S11307E0B9F7A05DAA3308F0A95DA193009779F742
S11307F0B111B1931192CB010C94FE03DC01FC0105
S1130800672F71917723E1F7329704C07C916D9340
S113081070836291AE17BF07C8F30895F894FFCFB1
S1130820467265713A200020487A2020004475748D
S10D0830793A200020252020000062
S9030000FC
